{
  "_format": "hh-sol-artifact-1",
  "contractName": "ContentCert",
  "sourceName": "contracts/ContentCert.sol",
  "abi": [
    {
      "anonymous": false,
      "inputs": [
        {
          "indexed": true,
          "internalType": "bytes32",
          "name": "hash",
          "type": "bytes32"
        },
        {
          "indexed": true,
          "internalType": "address",
          "name": "creator",
          "type": "address"
        },
        {
          "indexed": false,
          "internalType": "uint8",
          "name": "contentType",
          "type": "uint8"
        }
      ],
      "name": "Certified",
      "type": "event"
    },
    {
      "inputs": [
        {
          "internalType": "bytes32",
          "name": "",
          "type": "bytes32"
        }
      ],
      "name": "certifications",
      "outputs": [
        {
          "internalType": "address",
          "name": "creator",
          "type": "address"
        },
        {
          "internalType": "uint8",
          "name": "contentType",
          "type": "uint8"
        },
        {
          "internalType": "bytes32",
          "name": "hash",
          "type": "bytes32"
        },
        {
          "internalType": "uint256",
          "name": "timestamp",
          "type": "uint256"
        }
      ],
      "stateMutability": "view",
      "type": "function"
    },
    {
      "inputs": [
        {
          "internalType": "bytes32",
          "name": "hash",
          "type": "bytes32"
        },
        {
          "internalType": "address",
          "name": "creator",
          "type": "address"
        },
        {
          "internalType": "uint8",
          "name": "contentType",
          "type": "uint8"
        }
      ],
      "name": "certify",
      "outputs": [],
      "stateMutability": "nonpayable",
      "type": "function"
    },
    {
      "inputs": [
        {
          "internalType": "bytes32",
          "name": "hash",
          "type": "bytes32"
        }
      ],
      "name": "getCert",
      "outputs": [
        {
          "components": [
            {
              "internalType": "address",
              "name": "creator",
              "type": "address"
            },
            {
              "internalType": "uint8",
              "name": "contentType",
              "type": "uint8"
            },
            {
              "internalType": "bytes32",
              "name": "hash",
              "type": "bytes32"
            },
            {
              "internalType": "uint256",
              "name": "timestamp",
              "type": "uint256"
            }
          ],
          "internalType": "struct ContentCert.Cert",
          "name": "",
          "type": "tuple"
        }
      ],
      "stateMutability": "view",
      "type": "function"
    }
  ],
  "bytecode": "0x6080604052348015600f57600080fd5b506106e78061001f6000396000f3fe608060405234801561001057600080fd5b50600436106100415760003560e01c8063031b74d9146100465780632853ba7b14610076578063ab0cfd07146100a9575b600080fd5b610060600480360381019061005b91906103cb565b6100c5565b60405161006d91906104d2565b60405180910390f35b610090600480360381019061008b91906103cb565b610178565b6040516100a09493929190610529565b60405180910390f35b6100c360048036038101906100be91906105c6565b6101d5565b005b6100cd61034c565b6000808381526020019081526020016000206040518060800160405290816000820160009054906101000a900473ffffffffffffffffffffffffffffffffffffffff1673ffffffffffffffffffffffffffffffffffffffff1673ffffffffffffffffffffffffffffffffffffffff1681526020016000820160149054906101000a900460ff1660ff1660ff168152602001600182015481526020016002820154815250509050919050565b60006020528060005260406000206000915090508060000160009054906101000a900473ffffffffffffffffffffffffffffffffffffffff16908060000160149054906101000a900460ff16908060010154908060020154905084565b6000806000858152602001908152602001600020600201541461022d576040517f08c379a000000000000000000000000000000000000000000000000000000000815260040161022490610676565b60405180910390fd5b60405180608001604052808373ffffffffffffffffffffffffffffffffffffffff1681526020018260ff1681526020018481526020014281525060008085815260200190815260200160002060008201518160000160006101000a81548173ffffffffffffffffffffffffffffffffffffffff021916908373ffffffffffffffffffffffffffffffffffffffff16021790555060208201518160000160146101000a81548160ff021916908360ff16021790555060408201518160010155606082015181600201559050508173ffffffffffffffffffffffffffffffffffffffff16837fdd56907f5d76a795b9a7323e9c44da31cbee447ab4e21e2203eab49ab24701ca8360405161033f9190610696565b60405180910390a3505050565b6040518060800160405280600073ffffffffffffffffffffffffffffffffffffffff168152602001600060ff16815260200160008019168152602001600081525090565b600080fd5b6000819050919050565b6103a881610395565b81146103b357600080fd5b50565b6000813590506103c58161039f565b92915050565b6000602082840312156103e1576103e0610390565b5b60006103ef848285016103b6565b91505092915050565b600073ffffffffffffffffffffffffffffffffffffffff82169050919050565b6000610423826103f8565b9050919050565b61043381610418565b82525050565b600060ff82169050919050565b61044f81610439565b82525050565b61045e81610395565b82525050565b6000819050919050565b61047781610464565b82525050565b608082016000820151610493600085018261042a565b5060208201516104a66020850182610446565b5060408201516104b96040850182610455565b5060608201516104cc606085018261046e565b50505050565b60006080820190506104e7600083018461047d565b92915050565b6104f681610418565b82525050565b61050581610439565b82525050565b61051481610395565b82525050565b61052381610464565b82525050565b600060808201905061053e60008301876104ed565b61054b60208301866104fc565b610558604083018561050b565b610565606083018461051a565b95945050505050565b61057781610418565b811461058257600080fd5b50565b6000813590506105948161056e565b92915050565b6105a381610439565b81146105ae57600080fd5b50565b6000813590506105c08161059a565b92915050565b6000806000606084860312156105df576105de610390565b5b60006105ed868287016103b6565b93505060206105fe86828701610585565b925050604061060f868287016105b1565b9150509250925092565b600082825260208201905092915050565b7f416c726561647920636572746966696564000000000000000000000000000000600082015250565b6000610660601183610619565b915061066b8261062a565b602082019050919050565b6000602082019050818103600083015261068f81610653565b9050919050565b60006020820190506106ab60008301846104fc565b9291505056fea26469706673582212207c214f342464f0131fbfa5d972d6ad27a81ed1e2508f7f2cb73d87fb57cb615a64736f6c634300081c0033",
  "linkReferences": {},
  "deployedLinkReferences": {}
}